:020000040800F2
:100000008006002089010008870300087F0300089C
:1000100083030008430200081905000800000000DF
:10002000000000000000000000000000AD03000818
:100030004702000800000000890300089904000836
:10004000A3010008A3010008A3010008A301000800
:10005000A3010008A3010008A3010008A3010008F0
:10006000A3010008A3010008A3010008A3010008E0
:10007000A3010008A3010008A3010008A3010008D0
:10008000A3010008A3010008A3010008A3010008C0
:10009000A3010008A3010008A3010008A3010008B0
:1000A000A3010008A3010008A3010008A3010008A0
:1000B000A3010008A3010008A3010008A301000890
:1000C000A3010008A3010008A3010008A301000880
:1000D000A3010008A3010008A3010008A301000870
:1000E000A3010008A3010008A301000800F002F822
:1000F00000F03AF80AA090E8000C82448344AAF188
:100100000107DA4501D100F02FF8AFF2090EBAE885
:100110000F0013F0010F18BFFB1A43F0010318473B
:100120000005000020050000103A24BF78C878C1FF
:10013000FAD8520724BF30C830C144BF04680C60ED
:10014000704700000023002400250026103A28BF35
:1001500078C1FBD8520728BF30C148BF0B60704739
:100160001FB51FBD10B510BD00F031F81146FFF7E7
:10017000F7FF00F0D3F900F04FF803B4FFF7F2FFF8
:1001800003BC00F057F800000948804709480047C1
:10019000FEE7FEE7FEE7FEE7FEE7FEE7FEE7FEE737
:1001A000FEE7FEE704480549054A064B7047000094
:1001B000A1040008ED000008800000208006002057
:1001C000800200208002002070477047704775460B
:1001D00000F02CF8AE4605006946534620F00700B3
:1001E000854618B020B5FFF7DDFFBDE820404FF091
:1001F00000064FF000074FF000084FF0000B21F011
:100200000701AC46ACE8C009ACE8C009ACE8C009DD
:10021000ACE8C0098D46704710B50446AFF30080C6
:100220002046BDE81040FFF7A8BF00000048704717
:100230001C00002001491820ABBEFEE7260002008A
:10024000704700BFFEE7704701B504490098086099
:1002500000BF024800680028FBD108BD1400002040
:100260002DE9F0410246002500260020002300244D
:10027000002791F803C00CF00F0591F803C00CF0B3
:10028000100CBCF1000F03D091F802C04CEA050538
:1002900091F800C0BCF1000F31D0146800202BE0B1
:1002A0004FF0010C0CFA00F3B1F800C00CEA0306A1
:1002B0009E4220D183004FF00F0C0CFA03F7BC4391
:1002C00005FA03FC4CEA040491F803C0BCF1280FC2
:1002D00006D14FF0010C0CFA00FCC2F814C00AE081
:1002E00091F803C0BCF1480F05D14FF0010C0CFA96
:1002F00000FCC2F810C0401C0828D1D31460B1F82B
:1003000000C0BCF1FF0F34DD546800202EE000F186
:10031000080C4FF0010808FA0CF3B1F800C00CEA21
:1003200003069E4221D183004FF00F0C0CFA03F715
:10033000BC4305FA03FC4CEA040491F803C0BCF189
:10034000280F05D100F1080C08FA0CF8C2F8148047
:1003500091F803C0BCF1480F07D100F1080C4FF031
:10036000010808FA0CF8C2F81080401C0828CED307
:100370005460BDE8F081416170470161704700BF82
:10038000FEE700BFFEE770477047000029B1064A4C
:1003900092690243044B9A6104E0034A92698243E2
:1003A000014B9A617047000000100240704710B581
:1003B00000F002F810BD00000CB500200190009084
:1003C0003348006840F480303149086000BF30484D
:1003D000006800F4003000900198401C01900098E3
:1003E00018B90198B0F5A06FF1D12948006800F460
:1003F000003010B10120009001E000200090009832
:10040000012843D12348006840F0100021490860CA
:100410000846006820F0030008600846006840F0C5
:10042000020008601A484068194948600846406858
:1004300048600846406840F480604860084640686C
:1004400020F47C1048600846406840F4E81048609A
:100450000846006840F08070086000BF0C480068E3
:1004600000F000700028F9D00948406820F003002F
:10047000074948600846406840F00200486000BFF5
:100480000348406800F00C000828F9D10CBD0000BA
:10049000001002400020024010B500F031F810BDFD
:1004A00010B51348006840F0010011490860084683
:1004B0004068104908400E494860084600680E49E7
:1004C00008400B4908600846006820F48020086056
:1004D0000846406820F4FE0048604FF41F00886022
:1004E000FFF765FF4FF000600449086010BD000091
:1004F000001002400000FFF8FFFFF6FE08ED00E0EC
:100500000448006820B103480068401E01490860A3
:10051000704700001400002000BFFEE73948006863
:10052000394AB0FBF2F1B1F1807F01D301201DE027
:1005300021F07F40401E4FF0E022506150170F2203
:10054000002807DA13071D0E304B00F00F04241F9C
:100550001D5503E013071C0E2D4B1C5400BF00203B
:100560004FF0E022906107201061002008B100BF29
:10057000FEE701211820FFF709FF10202549C87068
:1005800040020880032088702348FFF769FE10208E
:100590002049C87080020880032088701E48FFF739
:1005A0005FFE10201B49C87000020880032088707D
:1005B0001A48FFF755FE23E04FF400511648FFF7A5
:1005C000DCFE4FF480511548FFF7D7FE4FF4804111
:1005D0001148FFF7D0FE0C48FFF736FE4FF40051EC
:1005E0000D48FFF7C8FE4FF480510C48FFF7C3FEDB
:1005F0004FF480410848FFF7C0FE0348FFF724FE90
:10060000DAE700000000002040420F0018ED00E093
:1006100000E400E01800002000100140000C014040
:1006200040060008000000201C000000280100080F
:100630005C0600081C00002064060000440100085D
:1006400000A24A04000000000000000001020304B0
:0C06500006070809000000000000000080
:04000005080000ED02
:00000001FF
