:020000040800F2
:1000000078060020890100086902000861020008E2
:100010006502000843020008D90300080000000040
:100020000000000000000000000000006D02000859
:1000300047020008000000006B0200085903000896
:10004000A3010008A3010008A3010008A301000800
:10005000A3010008A3010008A3010008A3010008F0
:10006000A3010008A3010008A3010008A3010008E0
:10007000A3010008A3010008A3010008A3010008D0
:10008000A3010008A3010008A3010008A3010008C0
:10009000A3010008A3010008A3010008A3010008B0
:1000A000A3010008A3010008A3010008A3010008A0
:1000B000A3010008A3010008A3010008A301000890
:1000C000A3010008A3010008A3010008A301000880
:1000D000A3010008A3010008A3010008A301000870
:1000E000A3010008A3010008A301000800F002F822
:1000F00000F03AF80AA090E8000C82448344AAF188
:100100000107DA4501D100F02FF8AFF2090EBAE885
:100110000F0013F0010F18BFFB1A43F0010318473B
:100120003003000050030000103A24BF78C878C1A3
:10013000FAD8520724BF30C830C144BF04680C60ED
:10014000704700000023002400250026103A28BF35
:1001500078C1FBD8520728BF30C148BF0B60704739
:100160001FB51FBD10B510BD00F031F81146FFF7E7
:10017000F7FF00F033F900F04FF803B4FFF7F2FF98
:1001800003BC00F057F800000948804709480047C1
:10019000FEE7FEE7FEE7FEE7FEE7FEE7FEE7FEE737
:1001A000FEE7FEE704480549054A064B7047000094
:1001B00061030008ED0000087800002078060020A8
:1001C000780200207802002070477047704775461B
:1001D00000F02CF8AE4605006946534620F00700B3
:1001E000854618B020B5FFF7DDFFBDE820404FF091
:1001F00000064FF000074FF000084FF0000B21F011
:100200000701AC46ACE8C009ACE8C009ACE8C009DD
:10021000ACE8C0098D46704710B50446AFF30080C6
:100220002046BDE81040FFF7A8BF00000048704717
:100230001800002001491820ABBEFEE7260002008E
:10024000704700BFFEE7704701B504490098086099
:1002500000BF024800680028FBD108BD1400002040
:1002600000BFFEE700BFFEE770477047704710B55C
:1002700000F002F810BD00000CB5002001900090C5
:100280003348006840F480303149086000BF30488E
:10029000006800F4003000900198401C0190009824
:1002A00018B90198B0F5A06FF1D12948006800F4A1
:1002B000003010B10120009001E000200090009873
:1002C000012843D12348006840F01000214908600C
:1002D0000846006820F0030008600846006840F007
:1002E000020008601A48406819494860084640689A
:1002F00048600846406840F48060486008464068AE
:1003000020F47C1048600846406840F4E8104860DB
:100310000846006840F08070086000BF0C48006824
:1003200000F000700028F9D00948406820F0030070
:10033000074948600846406840F00200486000BF36
:100340000348406800F00C000828F9D10CBD0000FB
:10035000001002400020024010B500F031F810BD3E
:1003600010B51348006840F00100114908600846C4
:100370004068104908400E494860084600680E4928
:1003800008400B4908600846006820F48020086097
:100390000846406820F4FE0048604FF41F00886063
:1003A000FFF765FF4FF000600449086010BD0000D2
:1003B000001002400000FFF8FFFFF6FE08ED00E02D
:1003C0000448006820B103480068401E01490860E5
:1003D000704700001400002000BFFEE719480068C5
:1003E0004FF47A72B0FBF2F1B1F1807F01D30120BA
:1003F0001DE021F07F40401E4FF0E0225061501779
:100400000F22002807DA13071D0E0F4B00F00F0410
:10041000241F1D5503E013071C0E0C4B1C5400BF7A
:1004200000204FF0E022906107201061002008B109
:1004300000BFFEE705E03220FFF706FF6420FFF76C
:1004400003FFF8E70000002018ED00E000E400E002
:1004500070040008000000201800000028010008B7
:10046000880400081800002060060000440100080D
:1004700000A24A0400000000000000000102030482
:08048000060708090000000056
:04000005080000ED02
:00000001FF
