:020000040800F2
:10000000A0060020890100089B0300089303000854
:100010009703000843020008A10A0008000000003E
:10002000000000000000000000000000A50400081F
:1000300047020008000000002D0400089105000898
:10004000A3010008A3010008A3010008A301000800
:10005000A3010008A3010008A3010008A3010008F0
:10006000A3010008A3010008A3010008A3010008E0
:10007000A3010008A3010008A3010008A3010008D0
:10008000A3010008A3010008A3010008A3010008C0
:10009000A3010008A3010008A3010008A3010008B0
:1000A000A3010008A3010008A3010008A3010008A0
:1000B000A3010008F5050008A3010008A30100083A
:1000C000A3010008A3010008A3010008A301000880
:1000D000A3010008A3010008A3010008A301000870
:1000E000A3010008A3010008A301000800F002F822
:1000F00000F03AF80AA090E8000C82448344AAF188
:100100000107DA4501D100F02FF8AFF2090EBAE885
:100110000F0013F0010F18BFFB1A43F0010318473B
:10012000680A0000880A0000103A24BF78C878C125
:10013000FAD8520724BF30C830C144BF04680C60ED
:10014000704700000023002400250026103A28BF35
:1001500078C1FBD8520728BF30C148BF0B60704739
:100160001FB51FBD10B510BD00F031F81146FFF7E7
:10017000F7FF00F097FC00F04FF803B4FFF7F2FF31
:1001800003BC00F057F800000948804709480047C1
:10019000FEE7FEE7FEE7FEE7FEE7FEE7FEE7FEE737
:1001A000FEE7FEE704480549054A064B7047000094
:1001B00095050008ED000008A0000020A006002022
:1001C000A0020020A00200207047704770477546CB
:1001D00000F02CF8AE4605006946534620F00700B3
:1001E000854618B020B5FFF7DDFFBDE820404FF091
:1001F00000064FF000074FF000084FF0000B21F011
:100200000701AC46ACE8C009ACE8C009ACE8C009DD
:10021000ACE8C0098D46704710B50446AFF30080C6
:100220002046BDE81040FFF7A8BF00000048704717
:100230004000002001491820ABBEFEE72600020066
:10024000704700BFFEE7704708B5C020ADF800005A
:1002500018208DF8030003208DF802006946054838
:1002600000F00CF80320ADF800006946024800F0E9
:1002700005F808BD00080140000C01402DE9F041DF
:10028000024600250026002000230024002791F8C4
:1002900003C00CF00F0591F803C00CF0100CBCF17A
:1002A000000F03D091F802C04CEA050591F800C098
:1002B000BCF1000F31D0146800202BE04FF0010C8E
:1002C0000CFA00F3B1F800C00CEA03069E4220D1FC
:1002D00083004FF00F0C0CFA03F7BC4305FA03FC44
:1002E0004CEA040491F803C0BCF1280F06D14FF08A
:1002F000010C0CFA00FCC2F814C00AE091F803C02B
:10030000BCF1480F05D14FF0010C0CFA00FCC2F80B
:1003100010C0401C0828D1D31460B1F800C0BCF153
:10032000FF0F34DD546800202EE000F1080C4FF080
:10033000010808FA0CF3B1F800C00CEA03069E426B
:1003400021D183004FF00F0C0CFA03F7BC4305FAE0
:1003500003FC4CEA040491F803C0BCF1280F05D15A
:1003600000F1080C08FA0CF8C2F8148091F803C0E8
:10037000BCF1480F07D100F1080C4FF0010808FA52
:100380000CF8C2F81080401C0828CED35460BDE899
:10039000F08100BFFEE700BFFEE7704708B51D20F3
:1003A0008DF8000000208DF801008DF8020001207A
:1003B0008DF80300684600F001F808BD70B5002113
:1003C00000230F22C47804B3154C246804F4E064BD
:1003D000C4F5E064210AC1F10403CA40447804FA78
:1003E00003F184781440214309010E4C0678A1558D
:1003F000047804F01F050124AC4005786D11AD00B0
:1004000005F1E025C5F8004109E0047804F01F0576
:100410000124AC40044D0678761145F8264070BDA5
:100420000CED00E000E400E080E100E07047000037
:1004300029B1064AD2690243044BDA6104E0034A57
:10044000D2698243014BDA6170470000001002401C
:1004500029B1064A92690243044B9A6104E0034AB7
:1004600092698243014B9A6170470000001002407C
:1004700010B54FF4A06000F009F801210220FFF749
:10048000D7FF01211D20FFF7E3FF10BD014600202B
:10049000034A506820F4E060084350607047000051
:1004A00000100240704710B500F002F810BD0000C7
:1004B0000CB50020019000903348006840F4803073
:1004C0003149086000BF3048006800F400300090F7
:1004D0000198401C0190009818B90198B0F5A06FE0
:1004E000F1D12948006800F4003010B101200090DB
:1004F00001E0002000900098012843D123480068C3
:1005000040F01000214908600846006820F0030010
:1005100008600846006840F0020008601A48406819
:10052000194948600846406848600846406840F4F9
:10053000806048600846406820F47C1048600846A7
:10054000406840F4E81048600846006840F0807059
:10055000086000BF0C48006800F000700028F9D067
:100560000948406820F00300074948600846406891
:1005700040F00200486000BF0348406800F00C00F3
:100580000828F9D10CBD00000010024000200240F4
:100590007047000010B51348006840F00100114991
:1005A000086008464068104908400E4948600846FF
:1005B00000680E4908400B4908600846006820F4AE
:1005C000802008600846406820F4FE0048604FF430
:1005D0001F008860FFF767FF4FF000600449086064
:1005E00010BD0000001002400000FFF8FFFFF6FE03
:1005F00008ED00E010B502212D4800F081F888B127
:1006000002212B4800F060F8294800F06CF82949D5
:10061000088008460088284A1288104481B224487D
:1006200000F0E3F90421224800F06AF888B10421BF
:100630001F4800F049F81E4800F058F81D4908808E
:10064000084600881D4A1288104481B2184800F0FC
:10065000CEF90821164800F053F888B10821144853
:1006600000F032F8124800F044F8124908800846B9
:100670000088134A1288104481B20D4800F0B9F97D
:1006800010210B4800F03CF888B11021084800F018
:100690001BF8074800F030F8064908800846008833
:1006A000084A1288104481B2014800F0A4F910BD34
:1006B0000004004000000020180000201A00002064
:1006C0001C0000201E000020CA430282704721B196
:1006D000028842F00102028004E002884FF6FE73B5
:1006E0001A40028070470146888E70470146088F85
:1006F00070470146888F70470146B1F84000704747
:1007000030B50246002000230024158A05EA0103C3
:10071000958905EA010413B10CB1012000E0002025
:1007200030BD1AB183890B43838102E083898B43F7
:100730008381704770B5002400220023058C4FF69A
:10074000FE7635400584028C8388048B4FF68F75C6
:100750002C40B51E2C400D882C43751E2A400D8957
:100760002A434D882A43144DA8420BD0134DA8426A
:1007700008D0134DA84205D0124DA84202D0124D08
:10078000A84213D14FF6F7752A404D892A434FF6F8
:10079000FB752A408D882A434FF6FF652B404FF6A4
:1007A000FF552B408D892B43CD892B4383800483B8
:1007B000CD888586028470BD002C01400034014044
:1007C0000040014000440140004801400A46002129
:1007D000018B4FF6F77319401143018370470000F6
:1007E00070B5002400220023058C4FF6EF763540CB
:1007F0000584028C8388048B48F6FF752C404FF6E5
:10080000FF452C400D884FF6FF7606EA05252C4360
:100810004FF6DF752A400D8906EA05152A434D88F3
:1008200006EA05152A43154DA84202D0144DA842E8
:100830001DD14FF67F752A404D894FF6FF7606EAA7
:1008400005152A434FF6BF752A408D8806EA05151F
:100850002A434FF6FF352B404FF2FF752B408D8911
:1008600006EA85052B43CD8906EA85052B4383805F
:100870000483CD880587028470BD0000002C0140F0
:10088000003401400A460021018B4FF2FF731940EA
:100890004FF6FF7303EA02231943018370470000F8
:1008A00070B5002400220023058C4FF6FF6635400A
:1008B0000584028C8388848B4FF68F752C404FF60D
:1008C000FC752C400D882C434FF6FF552A400D89AE
:1008D0004FF6FF7606EA05252A434D8806EA0525E8
:1008E0002A43154DA84202D0144DA8421DD14FF203
:1008F000FF752A404D894FF6FF7606EA05252A4303
:100900004FF6FF352A408D8806EA05252A434EF624
:10091000FF752B404DF6FF752B408D8906EA0515B6
:100920002B43CD8906EA05152B4383808483CD882C
:100930008587028470BD0000002C01400034014016
:100940000A460021818B4FF6F773194011438183CA
:100950007047000070B5002200230024058C4EF67D
:10096000FF7635400584038C8488828B48F6FF75BA
:100970002A404FF6FF452A400D884FF6FF7606EADB
:1009800005252A434DF6FF752B400D8906EA0535EE
:100990002B434D8806EA05352B430B4DA84202D068
:1009A0000A4DA84208D14BF6FF752C408D894FF6B1
:1009B000FF7606EA85152C4384808283CD88A0F8D3
:1009C0004050038470BD0000002C01400034014001
:1009D0000A460021818B4FF2FF7319404FF6FF73D7
:1009E00003EA022319438183704781867047018798
:1009F000704781877047A0F8401070470022028836
:100A00001D4B98420ED01D4B98420BD0B0F1804F39
:100A100008D01B4B984205D01A4B984202D01A4B73
:100A2000984204D14FF68F731A404B881A43174BE4
:100A3000984207D0164B984204D04FF6FF431A4015
:100A4000CB881A4302808B8883850B8803850A4BE9
:100A500098420BD0094B984208D00E4B984205D0D3
:100A60000D4B984202D00D4B984201D10B7A038670
:100A70000123838270470000002C014000340140B4
:100A80000004004000080040000C0040001000403E
:100A90000014004000400140004401400048014073
:100AA00000BFFEE7FFF7E4FCFFF778FCFFF7CCFBA5
:100AB0002B4800682B49B0FBF1F0401E2A49088002
:100AC0004FF6FF7029498880274800880880002059
:100AD000C88048802648FFF791FF302025490880CC
:100AE0000120488024480088C880022008812048CE
:100AF000FFF720FE00211E48FFF768FE01201D4978
:100B000048801E480088C8801948FFF769FE002108
:100B10001748FFF7B7FE012016494880184800889B
:100B2000C8801348FFF7BCFE00211148FFF708FFFB
:100B300001201049488013480088C8800C48FFF7FE
:100B400009FF00210A48FFF743FF01210848FFF78A
:100B5000BEFD01221E210648FFF7E3FD00BFFEE7B0
:100B60000400002000366E01200000202400002038
:100B7000000400402E000020180000201A00002071
:100B80001C0000201E000020A80B00080000002010
:100B90002400000028010008CC0B000824000020DD
:100BA0007C060000440100080000000000A24A0486
:100BB000000000000000000001020304060708090D
:0C0BC00000800040002000100000000039
:04000005080000ED02
:00000001FF
