:020000040800F2
:100000008007002089010008D3030008CB03000803
:10001000CF0300084302000831060008000000007A
:10002000000000000000000000000000E3040008E1
:100030004702000800000000D5030008CD050008B5
:10004000A3010008A3010008A3010008A301000800
:10005000A3010008A3010008A3010008A3010008F0
:10006000A3010008A3010008A3010008A3010008E0
:10007000A3010008A3010008A3010008A3010008D0
:10008000A3010008A3010008A3010008A3010008C0
:10009000A3010008A3010008A3010008A3010008B0
:1000A000A3010008A3010008A3010008A3010008A0
:1000B000A3010008A3010008A3010008A301000890
:1000C000A3010008A3010008A3010008A301000880
:1000D000A3010008A3010008A3010008A301000870
:1000E000A3010008A3010008A301000800F002F822
:1000F00000F03AF80AA090E8000C82448344AAF188
:100100000107DA4501D100F02FF8AFF2090EBAE885
:100110000F0013F0010F18BFFB1A43F0010318473B
:100120005006000070060000103A24BF78C878C15D
:10013000FAD8520724BF30C830C144BF04680C60ED
:10014000704700000023002400250026103A28BF35
:1001500078C1FBD8520728BF30C148BF0B60704739
:100160001FB51FBD10B510BD00F031F81146FFF7E7
:10017000F7FF00F05FFA00F04FF803B4FFF7F2FF6B
:1001800003BC00F057F800000948804709480047C1
:10019000FEE7FEE7FEE7FEE7FEE7FEE7FEE7FEE737
:1001A000FEE7FEE704480549054A064B7047000094
:1001B000D1050008ED000008800100208007002024
:1001C0008003002080030020704770477047754609
:1001D00000F02CF8AE4605006946534620F00700B3
:1001E000854618B020B5FFF7DDFFBDE820404FF091
:1001F00000064FF000074FF000084FF0000B21F011
:100200000701AC46ACE8C009ACE8C009ACE8C009DD
:10021000ACE8C0098D46704710B50446AFF30080C6
:100220002046BDE81040FFF7A8BF00000048704717
:100230002001002001491820ABBEFEE72600020085
:10024000704700BFFEE7704708B5A020ADF800007A
:1002500003208DF8020018208DF80300694613482A
:1002600000F028F84020ADF8000004208DF80300CD
:1002700069460E4800F01EF84FF42040ADF800002B
:1002800003208DF8020004208DF803006946084819
:1002900000F010F84FF48040ADF8000018208DF801
:1002A00003006946024800F005F808BD0008014057
:1002B000000C01402DE9F0410246002500260020F7
:1002C00000230024002791F803C00CF00F0591F8DB
:1002D00003C00CF0100CBCF1000F03D091F802C069
:1002E0004CEA050591F800C0BCF1000F31D014684C
:1002F00000202BE04FF0010C0CFA00F3B1F800C025
:100300000CEA03069E4220D183004FF00F0C0CFA3A
:1003100003F7BC4305FA03FC4CEA040491F803C05C
:10032000BCF1280F06D14FF0010C0CFA00FCC2F80A
:1003300014C00AE091F803C0BCF1480F05D14FF09A
:10034000010C0CFA00FCC2F810C0401C0828D1D3E4
:100350001460B1F800C0BCF1FF0F34DD5468002018
:100360002EE000F1080C4FF0010808FA0CF3B1F888
:1003700000C00CEA03069E4221D183004FF00F0C0F
:100380000CFA03F7BC4305FA03FC4CEA040491F8A9
:1003900003C0BCF1280F05D100F1080C08FA0CF8D5
:1003A000C2F8148091F803C0BCF1480F07D100F1E6
:1003B000080C4FF0010808FA0CF8C2F81080401C35
:1003C0000828CED35460BDE8F08100BFFEE700BF2F
:1003D000FEE770477047000029B1064AD269024320
:1003E000044BDA6104E0034AD2698243014BDA61CB
:1003F000704700000010024029B1064A926902438A
:10040000044B9A6104E0034A92698243014B9A616A
:10041000704700000010024010B54FF4806000F0FB
:100420000BF8012141F20C00FFF7E6FF01218803E0
:10043000FFF7D2FF10BD000001460020034A5068BC
:1004400020F4605040EAC100506070470010024044
:1004500021B1028842F40052028004E002884DF685
:10046000FF731A400280704721B1028842F04002B7
:10047000028004E002884FF6BF731A400280704782
:100480000246002013890B400BB1012000E0002040
:1004900070470146888970478181704710B50022F6
:1004A000028802F441520B884C8823438C882343F2
:1004B000CC8823430C8923434C8923438C892343D1
:1004C000CC8923431A430280838B4FF2FF7423406D
:1004D00083830B8A038210BD018841F4805101801F
:1004E0007047704710B500F001F810BD0CB5002042
:1004F000019000903348006840F480303149086032
:1005000000BF3048006800F4003000900198401CA3
:100510000190009818B90198B0F5A06FF1D1294861
:10052000006800F4003010B10120009001E00020CC
:1005300000900098012843D12348006840F0100043
:10054000214908600846006820F00300086008465A
:10055000006840F0020008601A4840681949486085
:100560000846406848600846406840F4806048603B
:100570000846406820F47C1048600846406840F413
:10058000E81048600846006840F08070086000BFCE
:100590000C48006800F000700028F9D00948406855
:1005A00020F00300074948600846406840F0020018
:1005B000486000BF0348406800F00C000828F9D1EB
:1005C0000CBD0000001002400020024070470000F7
:1005D00010B51348006840F0010011490860084652
:1005E0004068104908400E494860084600680E49B6
:1005F00008400B4908600846006820F48020086025
:100600000846406820F4FE0048604FF41F008860F0
:10061000FFF768FF4FF000600449086010BD00005C
:10062000001002400000FFF8FFFFF6FE08ED00E0BA
:1006300000BFFEE7FFF7F0FEFFF706FE00F004F84C
:1006400000F038F800BFFEE710B50020164908801A
:100650004FF4827048804FF4006088800020C8808A
:100660000120088140024881102088810020C88133
:10067000072008820D48FFF711FF00200A49488033
:100680000B48FFF70BFF01210848FFF7E1FE0121AE
:100690000748FFF7DDFE01210448FFF7E5FE0121D1
:1006A0000348FFF7E1FE10BD8C0000200030014040
:1006B0000038004010B500202749086025E000BF41
:1006C00002212648FFF7DCFE0028F9D02248026804
:1006D0000068401C204B1860214830F812101F4859
:1006E000FFF7DAFE00BF01211E48FFF7C9FE002810
:1006F000F9D01C48FFF7CDFE1B490A680968491C60
:10070000194B1960194921F81200134800681F2875
:10071000D5D300BF02211148FFF7B2FE0028F9D05F
:100720000F480D4A126830F812100C48FFF7B4FE5B
:100730000A48FFF7D1FE00BF01210A48FFF7A0FEDB
:100740000028F9D00748FFF7A4FE0849064A1268B6
:1007500021F8120010BD0000800000200030014090
:10076000000000200038004084000020DE0000204F
:1007700090070008000000208C00000028010008FD
:100780001C0800088C000020F4060000440100084A
:1007900002010403060508070A090C0B0E0D100FD1
:1007A00012111413161518171A191C1B1E1D201FC1
:1007B00022212423262528272A292C2B2E2D302FB1
:1007C00032313433363538373A393C3B3E3D403FA1
:1007D00052515453565558575A595C5B5E5D605F91
:1007E00062616463666568676A696C6B6E6D706F81
:1007F00072717473767578777A797C7B7E7D807F71
:1008000082818483868588878A898C8B8E8D908F60
:0C081000000000000000000000000000DC
:04000005080000ED02
:00000001FF
